{
  "_format": "hh-sol-artifact-1",
  "contractName": "SealDocument",
  "sourceName": "contracts/SealDocument/SealDocument.sol",
  "abi": [
    {
      "inputs": [
        {
          "internalType": "address",
          "name": "target",
          "type": "address"
        }
      ],
      "name": "AddressEmptyCode",
      "type": "error"
    },
    {
      "inputs": [
        {
          "internalType": "address",
          "name": "implementation",
          "type": "address"
        }
      ],
      "name": "ERC1967InvalidImplementation",
      "type": "error"
    },
    {
      "inputs": [],
      "name": "ERC1967NonPayable",
      "type": "error"
    },
    {
      "inputs": [],
      "name": "FailedCall",
      "type": "error"
    },
    {
      "inputs": [],
      "name": "InvalidInitialization",
      "type": "error"
    },
    {
      "inputs": [],
      "name": "NotInitializing",
      "type": "error"
    },
    {
      "inputs": [
        {
          "internalType": "address",
          "name": "owner",
          "type": "address"
        }
      ],
      "name": "OwnableInvalidOwner",
      "type": "error"
    },
    {
      "inputs": [
        {
          "internalType": "address",
          "name": "account",
          "type": "address"
        }
      ],
      "name": "OwnableUnauthorizedAccount",
      "type": "error"
    },
    {
      "inputs": [],
      "name": "UUPSUnauthorizedCallContext",
      "type": "error"
    },
    {
      "inputs": [
        {
          "internalType": "bytes32",
          "name": "slot",
          "type": "bytes32"
        }
      ],
      "name": "UUPSUnsupportedProxiableUUID",
      "type": "error"
    },
    {
      "anonymous": false,
      "inputs": [
        {
          "indexed": false,
          "internalType": "uint64",
          "name": "version",
          "type": "uint64"
        }
      ],
      "name": "Initialized",
      "type": "event"
    },
    {
      "anonymous": false,
      "inputs": [
        {
          "indexed": true,
          "internalType": "address",
          "name": "previousOwner",
          "type": "address"
        },
        {
          "indexed": true,
          "internalType": "address",
          "name": "newOwner",
          "type": "address"
        }
      ],
      "name": "OwnershipTransferred",
      "type": "event"
    },
    {
      "anonymous": false,
      "inputs": [
        {
          "indexed": true,
          "internalType": "address",
          "name": "owner",
          "type": "address"
        },
        {
          "indexed": false,
          "internalType": "string",
          "name": "fileName",
          "type": "string"
        },
        {
          "indexed": false,
          "internalType": "string",
          "name": "fileHash",
          "type": "string"
        }
      ],
      "name": "SealedDocument",
      "type": "event"
    },
    {
      "anonymous": false,
      "inputs": [
        {
          "indexed": true,
          "internalType": "address",
          "name": "implementation",
          "type": "address"
        }
      ],
      "name": "Upgraded",
      "type": "event"
    },
    {
      "inputs": [],
      "name": "UPGRADE_INTERFACE_VERSION",
      "outputs": [
        {
          "internalType": "string",
          "name": "",
          "type": "string"
        }
      ],
      "stateMutability": "view",
      "type": "function"
    },
    {
      "inputs": [
        {
          "internalType": "address",
          "name": "owner",
          "type": "address"
        },
        {
          "internalType": "string",
          "name": "fileName",
          "type": "string"
        },
        {
          "internalType": "string",
          "name": "fileHash",
          "type": "string"
        }
      ],
      "name": "commitDocument",
      "outputs": [],
      "stateMutability": "nonpayable",
      "type": "function"
    },
    {
      "inputs": [
        {
          "internalType": "address",
          "name": "initialOwner",
          "type": "address"
        }
      ],
      "name": "initialize",
      "outputs": [],
      "stateMutability": "nonpayable",
      "type": "function"
    },
    {
      "inputs": [],
      "name": "owner",
      "outputs": [
        {
          "internalType": "address",
          "name": "",
          "type": "address"
        }
      ],
      "stateMutability": "view",
      "type": "function"
    },
    {
      "inputs": [],
      "name": "proxiableUUID",
      "outputs": [
        {
          "internalType": "bytes32",
          "name": "",
          "type": "bytes32"
        }
      ],
      "stateMutability": "view",
      "type": "function"
    },
    {
      "inputs": [],
      "name": "renounceOwnership",
      "outputs": [],
      "stateMutability": "nonpayable",
      "type": "function"
    },
    {
      "inputs": [
        {
          "internalType": "address",
          "name": "newOwner",
          "type": "address"
        }
      ],
      "name": "transferOwnership",
      "outputs": [],
      "stateMutability": "nonpayable",
      "type": "function"
    },
    {
      "inputs": [
        {
          "internalType": "address",
          "name": "newImplementation",
          "type": "address"
        },
        {
          "internalType": "bytes",
          "name": "data",
          "type": "bytes"
        }
      ],
      "name": "upgradeToAndCall",
      "outputs": [],
      "stateMutability": "payable",
      "type": "function"
    }
  ],
  "bytecode": "0x60a06040523073ffffffffffffffffffffffffffffffffffffffff1660809073ffffffffffffffffffffffffffffffffffffffff1681525034801561004357600080fd5b5060805161139961006d6000396000818161050001528181610555015261071001526113996000f3fe60806040526004361061007b5760003560e01c8063ad3cb1cc1161004e578063ad3cb1cc14610109578063c4d66de814610134578063d612b14e1461015d578063f2fde38b146101865761007b565b80634f1ef2861461008057806352d1902d1461009c578063715018a6146100c75780638da5cb5b146100de575b600080fd5b61009a60048036038101906100959190610f53565b6101af565b005b3480156100a857600080fd5b506100b16101ce565b6040516100be9190610fc8565b60405180910390f35b3480156100d357600080fd5b506100dc610201565b005b3480156100ea57600080fd5b506100f3610215565b6040516101009190610ff2565b60405180910390f35b34801561011557600080fd5b5061011e61024d565b60405161012b919061108c565b60405180910390f35b34801561014057600080fd5b5061015b600480360381019061015691906110ae565b610286565b005b34801561016957600080fd5b50610184600480360381019061017f919061113b565b61041d565b005b34801561019257600080fd5b506101ad60048036038101906101a891906110ae565b610478565b005b6101b76104fe565b6101c0826105e4565b6101ca82826105ef565b5050565b60006101d861070e565b7f360894a13ba1a3210667c828492db98dca3e2076cc3735a920a3ca505d382bbc60001b905090565b610209610795565b610213600061081c565b565b6000806102206108f3565b90508060000160009054906101000a900473ffffffffffffffffffffffffffffffffffffffff1691505090565b6040518060400160405280600581526020017f352e302e3000000000000000000000000000000000000000000000000000000081525081565b600061029061091b565b905060008160000160089054906101000a900460ff1615905060008260000160009054906101000a900467ffffffffffffffff1690506000808267ffffffffffffffff161480156102de5750825b9050600060018367ffffffffffffffff16148015610313575060003073ffffffffffffffffffffffffffffffffffffffff163b145b905081158015610321575080155b15610358576040517ff92ee8a900000000000000000000000000000000000000000000000000000000815260040160405180910390fd5b60018560000160006101000a81548167ffffffffffffffff021916908367ffffffffffffffff16021790555083156103a85760018560000160086101000a81548160ff0219169083151502179055505b6103b18661092f565b6103b9610943565b83156104155760008560000160086101000a81548160ff0219169083151502179055507fc7f505b2f371ae2175ee4913f4499e1f2633a7b5936321eed1cdaeb6115181d2600160405161040c9190611229565b60405180910390a15b505050505050565b8473ffffffffffffffffffffffffffffffffffffffff167f162b70e3dfc222f2d32afe261e2ae5625096e74c4bdb10821f0f44c68f72cb66858585856040516104699493929190611271565b60405180910390a25050505050565b610480610795565b600073ffffffffffffffffffffffffffffffffffffffff168173ffffffffffffffffffffffffffffffffffffffff16036104f25760006040517f1e4fbdf70000000000000000000000000000000000000000000000000000000081526004016104e99190610ff2565b60405180910390fd5b6104fb8161081c565b50565b7f000000000000000000000000000000000000000000000000000000000000000073ffffffffffffffffffffffffffffffffffffffff163073ffffffffffffffffffffffffffffffffffffffff1614806105ab57507f000000000000000000000000000000000000000000000000000000000000000073ffffffffffffffffffffffffffffffffffffffff1661059261094d565b73ffffffffffffffffffffffffffffffffffffffff1614155b156105e2576040517fe07c8dba00000000000000000000000000000000000000000000000000000000815260040160405180910390fd5b565b6105ec610795565b50565b8173ffffffffffffffffffffffffffffffffffffffff166352d1902d6040518163ffffffff1660e01b8152600401602060405180830381865afa92505050801561065757506040513d601f19601f8201168201806040525081019061065491906112d8565b60015b61069857816040517f4c9c8ce300000000000000000000000000000000000000000000000000000000815260040161068f9190610ff2565b60405180910390fd5b7f360894a13ba1a3210667c828492db98dca3e2076cc3735a920a3ca505d382bbc60001b81146106ff57806040517faa1d49a40000000000000000000000000000000000000000000000000000000081526004016106f69190610fc8565b60405180910390fd5b61070983836109a4565b505050565b7f000000000000000000000000000000000000000000000000000000000000000073ffffffffffffffffffffffffffffffffffffffff163073ffffffffffffffffffffffffffffffffffffffff1614610793576040517fe07c8dba00000000000000000000000000000000000000000000000000000000815260040160405180910390fd5b565b61079d610a17565b73ffffffffffffffffffffffffffffffffffffffff166107bb610215565b73ffffffffffffffffffffffffffffffffffffffff161461081a576107de610a17565b6040517f118cdaa70000000000000000000000000000000000000000000000000000000081526004016108119190610ff2565b60405180910390fd5b565b60006108266108f3565b905060008160000160009054906101000a900473ffffffffffffffffffffffffffffffffffffffff169050828260000160006101000a81548173ffffffffffffffffffffffffffffffffffffffff021916908373ffffffffffffffffffffffffffffffffffffffff1602179055508273ffffffffffffffffffffffffffffffffffffffff168173ffffffffffffffffffffffffffffffffffffffff167f8be0079c531659141344cd1fd0a4f28419497f9722a3daafe3b4186f6b6457e060405160405180910390a3505050565b60007f9016d09d72d40fdae2fd8ceac6b6234c7706214fd39c1cd1e609a0528c199300905090565b600080610926610a1f565b90508091505090565b610937610a4a565b61094081610a8a565b50565b61094b610a4a565b565b600061097b7f360894a13ba1a3210667c828492db98dca3e2076cc3735a920a3ca505d382bbc60001b610b10565b60000160009054906101000a900473ffffffffffffffffffffffffffffffffffffffff16905090565b6109ad82610b1a565b8173ffffffffffffffffffffffffffffffffffffffff167fbc7cd75a20ee27fd9adebab32041f755214dbc6bffa90cc0225b39da2e5c2d3b60405160405180910390a2600081511115610a0a57610a048282610be7565b50610a13565b610a12610c6b565b5b5050565b600033905090565b60007ff0c57e16840df040f15088dc2f81fe391c3923bec73e23a9662efc9c229c6a0060001b905090565b610a52610ca8565b610a88576040517fd7e6bcf800000000000000000000000000000000000000000000000000000000815260040160405180910390fd5b565b610a92610a4a565b600073ffffffffffffffffffffffffffffffffffffffff168173ffffffffffffffffffffffffffffffffffffffff1603610b045760006040517f1e4fbdf7000000000000000000000000000000000000000000000000000000008152600401610afb9190610ff2565b60405180910390fd5b610b0d8161081c565b50565b6000819050919050565b60008173ffffffffffffffffffffffffffffffffffffffff163b03610b7657806040517f4c9c8ce3000000000000000000000000000000000000000000000000000000008152600401610b6d9190610ff2565b60405180910390fd5b80610ba37f360894a13ba1a3210667c828492db98dca3e2076cc3735a920a3ca505d382bbc60001b610b10565b60000160006101000a81548173ffffffffffffffffffffffffffffffffffffffff021916908373ffffffffffffffffffffffffffffffffffffffff16021790555050565b60606000808473ffffffffffffffffffffffffffffffffffffffff1684604051610c11919061134c565b600060405180830381855af49150503d8060008114610c4c576040519150601f19603f3d011682016040523d82523d6000602084013e610c51565b606091505b5091509150610c61858383610cc8565b9250505092915050565b6000341115610ca6576040517fb398979f00000000000000000000000000000000000000000000000000000000815260040160405180910390fd5b565b6000610cb261091b565b60000160089054906101000a900460ff16905090565b606082610cdd57610cd882610d57565b610d4f565b60008251148015610d05575060008473ffffffffffffffffffffffffffffffffffffffff163b145b15610d4757836040517f9996b315000000000000000000000000000000000000000000000000000000008152600401610d3e9190610ff2565b60405180910390fd5b819050610d50565b5b9392505050565b600081511115610d6957805160208201fd5b6040517fd6bda27500000000000000000000000000000000000000000000000000000000815260040160405180910390fd5b6000604051905090565b600080fd5b600080fd5b600073ffffffffffffffffffffffffffffffffffffffff82169050919050565b6000610dda82610daf565b9050919050565b610dea81610dcf565b8114610df557600080fd5b50565b600081359050610e0781610de1565b92915050565b600080fd5b600080fd5b6000601f19601f8301169050919050565b7f4e487b7100000000000000000000000000000000000000000000000000000000600052604160045260246000fd5b610e6082610e17565b810181811067ffffffffffffffff82111715610e7f57610e7e610e28565b5b80604052505050565b6000610e92610d9b565b9050610e9e8282610e57565b919050565b600067ffffffffffffffff821115610ebe57610ebd610e28565b5b610ec782610e17565b9050602081019050919050565b82818337600083830152505050565b6000610ef6610ef184610ea3565b610e88565b905082815260208101848484011115610f1257610f11610e12565b5b610f1d848285610ed4565b509392505050565b600082601f830112610f3a57610f39610e0d565b5b8135610f4a848260208601610ee3565b91505092915050565b60008060408385031215610f6a57610f69610da5565b5b6000610f7885828601610df8565b925050602083013567ffffffffffffffff811115610f9957610f98610daa565b5b610fa585828601610f25565b9150509250929050565b6000819050919050565b610fc281610faf565b82525050565b6000602082019050610fdd6000830184610fb9565b92915050565b610fec81610dcf565b82525050565b60006020820190506110076000830184610fe3565b92915050565b600081519050919050565b600082825260208201905092915050565b60005b8381101561104757808201518184015260208101905061102c565b60008484015250505050565b600061105e8261100d565b6110688185611018565b9350611078818560208601611029565b61108181610e17565b840191505092915050565b600060208201905081810360008301526110a68184611053565b905092915050565b6000602082840312156110c4576110c3610da5565b5b60006110d284828501610df8565b91505092915050565b600080fd5b600080fd5b60008083601f8401126110fb576110fa610e0d565b5b8235905067ffffffffffffffff811115611118576111176110db565b5b602083019150836001820283011115611134576111336110e0565b5b9250929050565b60008060008060006060868803121561115757611156610da5565b5b600061116588828901610df8565b955050602086013567ffffffffffffffff81111561118657611185610daa565b5b611192888289016110e5565b9450945050604086013567ffffffffffffffff8111156111b5576111b4610daa565b5b6111c1888289016110e5565b92509250509295509295909350565b6000819050919050565b600067ffffffffffffffff82169050919050565b6000819050919050565b600061121361120e611209846111d0565b6111ee565b6111da565b9050919050565b611223816111f8565b82525050565b600060208201905061123e600083018461121a565b92915050565b60006112508385611018565b935061125d838584610ed4565b61126683610e17565b840190509392505050565b6000604082019050818103600083015261128c818688611244565b905081810360208301526112a1818486611244565b905095945050505050565b6112b581610faf565b81146112c057600080fd5b50565b6000815190506112d2816112ac565b92915050565b6000602082840312156112ee576112ed610da5565b5b60006112fc848285016112c3565b91505092915050565b600081519050919050565b600081905092915050565b600061132682611305565b6113308185611310565b9350611340818560208601611029565b80840191505092915050565b6000611358828461131b565b91508190509291505056fea26469706673582212200bc83cce3164a4ccb35ee407d7905f71195ffaf4560405c8ea49bf3b041e88c364736f6c63430008160033",
  "linkReferences": {},
  "deployedLinkReferences": {}
}