{
  "_format": "hh-sol-artifact-1",
  "contractName": "SealDocument",
  "sourceName": "contracts/SealDocument/SealDocument.sol",
  "abi": [
    {
      "inputs": [],
      "name": "InvalidInitialization",
      "type": "error"
    },
    {
      "inputs": [],
      "name": "NotInitializing",
      "type": "error"
    },
    {
      "anonymous": false,
      "inputs": [
        {
          "indexed": false,
          "internalType": "uint64",
          "name": "version",
          "type": "uint64"
        }
      ],
      "name": "Initialized",
      "type": "event"
    },
    {
      "anonymous": false,
      "inputs": [
        {
          "indexed": true,
          "internalType": "address",
          "name": "owner",
          "type": "address"
        },
        {
          "indexed": false,
          "internalType": "string",
          "name": "fileName",
          "type": "string"
        },
        {
          "indexed": false,
          "internalType": "string",
          "name": "fileHash",
          "type": "string"
        }
      ],
      "name": "SealedDocument",
      "type": "event"
    },
    {
      "inputs": [
        {
          "internalType": "address",
          "name": "owner",
          "type": "address"
        },
        {
          "internalType": "string",
          "name": "fileName",
          "type": "string"
        },
        {
          "internalType": "string",
          "name": "fileHash",
          "type": "string"
        }
      ],
      "name": "commitDocument",
      "outputs": [],
      "stateMutability": "nonpayable",
      "type": "function"
    },
    {
      "inputs": [],
      "name": "initialize",
      "outputs": [],
      "stateMutability": "nonpayable",
      "type": "function"
    }
  ],
  "bytecode": "0x608060405234801561001057600080fd5b50610525806100206000396000f3fe608060405234801561001057600080fd5b50600436106100365760003560e01c80638129fc1c1461003b578063d612b14e14610045575b600080fd5b610043610061565b005b61005f600480360381019061005a919061034d565b6101e6565b005b600061006b610241565b905060008160000160089054906101000a900460ff1615905060008260000160009054906101000a900467ffffffffffffffff1690506000808267ffffffffffffffff161480156100b95750825b9050600060018367ffffffffffffffff161480156100ee575060003073ffffffffffffffffffffffffffffffffffffffff163b145b9050811580156100fc575080155b15610133576040517ff92ee8a900000000000000000000000000000000000000000000000000000000815260040160405180910390fd5b60018560000160006101000a81548167ffffffffffffffff021916908367ffffffffffffffff16021790555083156101835760018560000160086101000a81548160ff0219169083151502179055505b83156101df5760008560000160086101000a81548160ff0219169083151502179055507fc7f505b2f371ae2175ee4913f4499e1f2633a7b5936321eed1cdaeb6115181d260016040516101d6919061043b565b60405180910390a15b5050505050565b8473ffffffffffffffffffffffffffffffffffffffff167f162b70e3dfc222f2d32afe261e2ae5625096e74c4bdb10821f0f44c68f72cb668585858560405161023294939291906104b4565b60405180910390a25050505050565b60008061024c610255565b90508091505090565b60007ff0c57e16840df040f15088dc2f81fe391c3923bec73e23a9662efc9c229c6a0060001b905090565b600080fd5b600080fd5b600073ffffffffffffffffffffffffffffffffffffffff82169050919050565b60006102b58261028a565b9050919050565b6102c5816102aa565b81146102d057600080fd5b50565b6000813590506102e2816102bc565b92915050565b600080fd5b600080fd5b600080fd5b60008083601f84011261030d5761030c6102e8565b5b8235905067ffffffffffffffff81111561032a576103296102ed565b5b602083019150836001820283011115610346576103456102f2565b5b9250929050565b60008060008060006060868803121561036957610368610280565b5b6000610377888289016102d3565b955050602086013567ffffffffffffffff81111561039857610397610285565b5b6103a4888289016102f7565b9450945050604086013567ffffffffffffffff8111156103c7576103c6610285565b5b6103d3888289016102f7565b92509250509295509295909350565b6000819050919050565b600067ffffffffffffffff82169050919050565b6000819050919050565b600061042561042061041b846103e2565b610400565b6103ec565b9050919050565b6104358161040a565b82525050565b6000602082019050610450600083018461042c565b92915050565b600082825260208201905092915050565b82818337600083830152505050565b6000601f19601f8301169050919050565b60006104938385610456565b93506104a0838584610467565b6104a983610476565b840190509392505050565b600060408201905081810360008301526104cf818688610487565b905081810360208301526104e4818486610487565b90509594505050505056fea2646970667358221220c21aa4e1304ca103161412bcca32ac44543c3b3bd4c5f1ae1b8055202ee5cfe764736f6c63430008140033",
  "linkReferences": {},
  "deployedLinkReferences": {}
}